:020000040800F2
:10000000000001201D0B0008DD160008DF160008A7
:10001000E1160008E3160008E516000800000000DD
:10002000000000000000000000000000E7160008CB
:10003000E916000800000000EB160008ED160008A5
:100040006D0B0008FB1600086D0B00086D0B000817
:100050006D0B00086D0B0008FF1600086D0B000803
:100060006D0B0008051700086D0B00086D0B0008EC
:100070006D0B00086D0B00086D0B00086D0B000880
:100080006D0B00086D0B00086D0B00086D0B000870
:100090006D0B00086D0B00086D0B00080B170008B6
:1000A0006D0B0008111700081D1700086D0B0008E4
:1000B0006D0B00086D0B00086D0B00086D0B000840
:1000C0006D0B00086D0B00086D0B00086D0B000830
:1000D0006D0B00086D0B00086D0B00086D0B000820
:1000E0006D0B00086D0B00086D0B00086D0B000810
:1000F0006D0B00086D0B00086D0B00086D0B000800
:100100006D0B000800000000000000006D0B0008EF
:100110006D0B00086D0B0008291700083517000843
:100120006D0B00086D0B00086D0B00086D0B0008CF
:100130006D0B00086D0B00080000000000000000BF
:100140006D0B00086D0B00086D0B0008000000002F
:10015000000000000000000000000000000000009F
:100160006D0B00086D0B00086D0B00086D0B00088F
:100170006D0B00086D0B00086D0B00086D0B00087F
:100180006D0B00086D0B000800000000000000006F
:040190006D0B0008EB
:1001980010B5054C237833B9044B13B10448AFF3B9
:1001A80000800123237010BD1C0000200000000007
:1001B800F438000808B5034B1BB103490348AFF3F3
:1001C800008008BD0000000020000020F43800086E
:1001D80081F0004102E000BF83F0004330B54FEAF0
:1001E80041044FEA430594EA050F08BF90EA020F5D
:1001F8001FBF54EA000C55EA020C7FEA645C7FEAF0
:10020800655C00F0E2804FEA5454D4EB5555B8BF12
:100218006D420CDD2C4480EA020281EA030382EA83
:10022800000083EA010180EA020281EA0303362D15
:1002380088BF30BD11F0004F4FEA01314FF4801CE8
:100248004CEA113102D0404261EB410113F0004FFA
:100258004FEA03334CEA133302D0524263EB4303B1
:1002680094EA050F00F0A780A4F10104D5F1200E4F
:100278000DDB02FA0EFC22FA05F2801841F10001AA
:1002880003FA0EF2801843FA05F359410EE0A5F17E
:1002980020050EF1200E012A03FA0EFC28BF4CF0AF
:1002A800020C43FA05F3C01851EBE37101F0004565
:1002B80007D54FF0000EDCF1000C7EEB00006EEB72
:1002C8000101B1F5801F1BD3B1F5001F0CD34908FC
:1002D8005FEA30004FEA3C0C04F101044FEA445253
:1002E80012F5800F80F09A80BCF1004F08BF5FEADA
:1002F800500C50F1000041EB045141EA050130BDBA
:100308005FEA4C0C404141EB010111F4801FA4F15C
:100318000104E9D191F0000F04BF01460020B1FAB1
:1003280081F308BF2033A3F10B03B3F120020CDAE9
:100338000C3208DD02F1140CC2F10C0201FA0CF0C7
:1003480021FA02F10CE002F11402D8BFC2F1200C2C
:1003580001FA02F120FA0CFCDCBF41EA0C019040E2
:10036800E41AA2BF01EB0451294330BD6FEA04042B
:100378001F3C1CDA0C340EDC04F11404C4F1200216
:1003880020FA04F001FA02F340EA030021FA04F328
:1003980045EA030130BDC4F10C04C4F1200220FA7F
:1003A80002F001FA04F340EA0300294630BD21FABD
:1003B80004F0294630BD94F0000F83F4801306BF83
:1003C80081F480110134013D4EE77FEA645C18BF77
:1003D8007FEA655C29D094EA050F08BF90EA020F0E
:1003E80005D054EA000C04BF1946104630BD91EA06
:1003F800030F1EBF0021002030BD5FEA545C05D109
:100408004000494128BF41F0004130BD14F5800447
:100418003CBF01F5801130BD01F0004545F0FE41BB
:1004280041F470014FF0000030BD7FEA645C1ABFF0
:10043800194610467FEA655C1CBF0B46024650EA27
:10044800013406BF52EA033591EA030F41F4002153
:1004580030BD00BF90F0000F04BF0021704730B5D9
:100468004FF4806404F132044FF000054FF00001AE
:1004780050E700BF90F0000F04BF0021704730B56F
:100488004FF4806404F1320410F0004548BF404244
:100498004FF000013EE700BF42004FEAE2014FEA99
:1004A80031014FEA02701FBF12F07F4393F07F4F74
:1004B80081F06051704792F0000F14BF93F07F4FA6
:1004C800704730B54FF4607401F0004521F00041E9
:1004D80020E700BF50EA010208BF704730B54FF06F
:1004E80000050AE050EA010208BF704730B511F074
:1004F800004502D5404261EB41014FF4806404F1AC
:1005080032045FEA915C3FF4DCAE4FF003025FEA2D
:10051800DC0C18BF03325FEADC0C18BF033202EBB5
:10052800DC02C2F1200300FA03FC20FA02F001FA0F
:1005380003FE40EA0E0021FA02F11444C1E600BFAE
:1005480070B54FF0FF0C4CF4E06C1CEA11541DBF61
:100558001CEA135594EA0C0F95EA0C0F00F0DEF82C
:100568002C4481EA030621EA4C5123EA4C5350EA11
:10057800013518BF52EA033541F4801143F4801362
:1005880038D0A0FB02CE4FF00005E1FB02E506F0F3
:100598000042E0FB03E54FF00006E1FB03569CF048
:1005A800000F18BF4EF0010EA4F1FF04B6F5007F4E
:1005B80064F5407404D25FEA4E0E6D4146EB0606C0
:1005C80042EAC62141EA55514FEAC52040EA5E5049
:1005D8004FEACE2EB4F1FD0C88BFBCF5E06F1ED8F3
:1005E800BEF1004F08BF5FEA500E50F1000041EB2A
:1005F800045170BD06F0004646EA010140EA0200D7
:1006080081EA0301B4EB5C04C2BFD4EB0C0541EAF8
:10061800045170BD41F480114FF0000E013C00F30D
:10062800AB8014F1360FDEBF002001F0004170BD31
:10063800C4F10004203C35DA0C341BDC04F114044A
:10064800C4F1200500FA05F320FA04F001FA05F2D6
:1006580040EA020001F0004221F0004110EBD370A3
:1006680021FA04F642EB06015EEA430E08BF20EACF
:10067800D37070BDC4F10C04C4F1200500FA04F372
:1006880020FA05F001FA04F240EA020001F0004104
:1006980010EBD37041F100015EEA430E08BF20EA77
:1006A800D37070BDC4F1200500FA05F24EEA020EBF
:1006B80020FA04F301FA05F243EA020321FA04F0EE
:1006C80001F0004121FA04F220EA020000EBD370A5
:1006D8005EEA430E08BF20EAD37070BD94F0000FA5
:1006E8000FD101F00046400041EB010111F4801FD9
:1006F80008BF013CF7D041EA060195F0000F18BF8A
:10070800704703F00046520043EB030313F4801FC5
:1007180008BF013DF7D043EA0603704794EA0C0F7F
:100728000CEA135518BF95EA0C0F0CD050EA410695
:1007380018BF52EA4306D1D181EA030101F0004112
:100748004FF0000070BD50EA410606BF104619463A
:1007580052EA430619D094EA0C0F02D150EA013646
:1007680013D195EA0C0F05D152EA03361CBF104687
:1007780019460AD181EA030101F0004141F0FE4126
:1007880041F470014FF0000070BD41F0FE4141F4AA
:10079800780170BD70B54FF0FF0C4CF4E06C1CEAAA
:1007A80011541DBF1CEA135594EA0C0F95EA0C0F5F
:1007B80000F0A7F8A4EB050481EA030E52EA03351A
:1007C8004FEA013100F088804FEA03334FF080553B
:1007D80045EA131343EA12634FEA022245EA111568
:1007E80045EA10654FEA00260EF000419D4208BF19
:1007F800964244F1FD0404F5407402D25B084FEAC6
:100808003202B61A65EB03055B084FEA32024FF471
:1008180080104FF4002CB6EB020E75EB030E22BFCE
:10082800B61A754640EA0C005B084FEA3202B6EB8E
:10083800020E75EB030E22BFB61A754640EA5C003D
:100848005B084FEA3202B6EB020E75EB030E22BFCD
:10085800B61A754640EA9C005B084FEA3202B6EBCE
:10086800020E75EB030E22BFB61A754640EADC008D
:1008780055EA060E18D04FEA051545EA16754FEAEF
:1008880006164FEAC30343EA52734FEAC2025FEA0D
:100898001C1CC0D111F4801F0BD141EA00014FF09C
:1008A80000004FF0004CB6E711F4801F04BF01436D
:1008B8000020B4F1FD0C88BFBCF5E06F3FF6AFAE89
:1008C800B5EB030C04BFB6EB020C5FEA500C50F119
:1008D800000041EB045170BD0EF0004E4EEA11319C
:1008E80014EB5C04C2BFD4EB0C0541EA045170BDA3
:1008F80041F480114FF0000E013C90E645EA060EE7
:100908008DE60CEA135594EA0C0F08BF95EA0C0F14
:100918003FF43BAF94EA0C0F0AD150EA01347FF45C
:1009280034AF95EA0C0F7FF425AF104619462CE733
:1009380095EA0C0F06D152EA03353FF4FDAE104696
:10094800194622E750EA410618BF52EA43067FF4E7
:10095800C5AE50EA41047FF40DAF52EA43057FF477
:10096800EBAE12E74FF0FF3C06E000BF4FF0010C82
:1009780002E000BF4FF0010C4DF804CD4FEA410CE6
:100988007FEA6C5C4FEA430C18BF7FEA6C5C1BD0B3
:1009980001B050EA410C0CBF52EA430C91EA030F34
:1009A80002BF90EA020F0020704710F1000F91EA91
:1009B800030F58BF994208BF90422CBFD8176FEA5F
:1009C800E37040F0010070474FEA410C7FEA6C5C2D
:1009D80002D150EA013C07D14FEA430C7FEA6C5C34
:1009E800D6D152EA033CD3D05DF8040B704700BF60
:1009F8008446104662468C461946634600E000BFAE
:100A080001B5FFF7B7FF002848BF10F1000F01BD7F
:100A18004DF808EDFFF7F4FF0CBF012000205DF84A
:100A280008FB00BF4DF808EDFFF7EAFF34BF0120CF
:100A380000205DF808FB00BF4DF808EDFFF7E0FF68
:100A480094BF012000205DF808FB00BF4DF808EDB9
:100A5800FFF7CEFF94BF012000205DF808FB00BF20
:100A68004DF808EDFFF7C4FF34BF012000205DF802
:100A780008FB00BF4FEA4102B2F1E04324BFB3F5DF
:100A8800001CDCF1FE5C0DD901F0004C4FEAC002FD
:100A98004CEA5070B2F1004F40EB830008BF20F0E1
:100AA8000100704711F0804F21D113F13872BCBF9B
:100AB80001F00040704741F480114FEA5252C2F1F0
:100AC8001802C2F1200C10FA0CF320FA02F018BF39
:100AD80040F001004FEAC1234FEAD32303FA0CFC8C
:100AE80040EA0C0023FA02F34FEA4303CCE77FEA1B
:100AF800625307D150EA01331EBF4FF0FE4040F465
:100B08004000704701F0004040F0FE4040F4000013
:100B1800704700BFDFF834D0002103E00C4B5B586E
:100B2800435004310B480C4B42189A42F6D30B4AF7
:100B380002E0002342F8043B094B9A42F9D300F043
:100B4800FBFD02F0AFFE00F097FAFEE7000001207F
:100B580050390008000000201C0000201C00002064
:100B680098020020FEE70000D0B55D4B2DED028B0A
:100B780093ED008AF0EEC87A17EE900AFFF78CFC26
:100B880053A3D3E90023FFF76BFF002866D0554C29
:100B98002068FFF781FC064618EE100A0F46FFF79B
:100BA8007BFC4DA3D3E90023FFF7CAFC02460B46A2
:100BB80030463946FFF712FBFFF75CFF4A4B4B49BB
:100BC800D3ED007A4A4B4B4A206007EE100A37EE05
:100BD800677A83ED007A484BD3ED007A77EE276A7F
:100BE800DFED467AF4EEE76AF1EE10FAD8BFF0EEE0
:100BF800667ADFED436AC3ED007AF4EEE67AF1EE49
:100C080010FA48BFC3ED006A93ED006AD1ED007A8F
:100C18003C4BD2ED006A67EE867A93ED006A3A4B58
:100C2800E7EE067A77EE666A93ED006A374BE6EEF2
:100C3800867AF2EE0E6AFDEEE77AC3ED007A344B5F
:100C480093ED006AB4EEE66AF1EE10FA09D8314B7A
:100C58001A68B423536393631E3BFBD1BDEC028B2C
:100C6800D0BD9FED2D6AF0EEC76AF4EEC66AF1EECC
:100C780010FA29D5B5EEC07AF1EE10FA0FDDF8EECC
:100C8800E76A9FED266A234BF0EEE66A76EE866AFF
:100C98001B68FCEEE66AC8215963C3ED0E6AB5EE1F
:100CA800C07AF1EE10FA0FD5F8EEE77ADFED1B6A9D
:100CB800184BF0EEE77A77EEA67A1B68FCEEE77A37
:100CC800C821C3ED0D7A996382ED007AC6E700BFAB
:100CD8009A9999999999B93F7B14AE47E17A843FDB
:100CE800080100203C0000205800002008000020D7
:100CF8004000002044000020480000200000C842B6
:100D08000000C8C20C000020040000206800002079
:100D180050010020600100200000A042000048436C
:100D28000268184B9A4210B50DD1174C23885BB155
:100D3800012B1AD0238801339BB241F2707293427F
:100D480008BF0023238010BD012202210F4800F0B4
:100D5800BDFE012204210D4800F0B8FE01224FF427
:100D680080710B4800F0B2FEE4E700220221074838
:100D780000F0ACFE00220421044800F0A7FE002287
:100D8800EDE700BF004801404C0000200008004883
:100D980000040048F8B501282DED028B014654D116
:100DA800794800F08DFE012808BF784B764802BFCD
:100DB8001B6800225A62012100F082FE78BB734B47
:100DC800734F1D68DFED738A0026B0EE0C8A6C6ADB
:100DD8002046FFF73FFB32463B46FFF7DBFCFFF7B9
:100DE80049FE07EE900AF4EEE87AF1EE10FAEEDC2E
:100DF800F4EEC87AF1EE10FAE9D4674B67491C6043
:100E0800674B684A18600B8892ED007A013337EE19
:100E1800877A9BB20A2B82ED007A03D00B80BDEC57
:100E2800028BF8BDF2EE046A87EE266A00230B8077
:100E38005D49F4EEE67AF1EE10FA81ED006A01D828
:100E48005A490B6000231360E9E7082849D14E4846
:100E580000F036FE012808BF554B4B4802BF1B68FF
:100E680000225A62082100F02BFE0028D7D1504BEF
:100E7800474F1D68DFED478A0026B0EE0C8A6C6A82
:100E88002046FFF7E7FA32463B46FFF783FCFFF7B9
:100E9800F1FD07EE900AF4EEE87AF1EE10FAEEDCD6
:100EA800F4EEC87AF1EE10FAE9D4424B42491C60DC
:100EB800424B434A18600B8892ED007A01339BB28B
:100EC80077EE877A0A2BC2ED007A0B80A7D1F2EE73
:100ED800046A87EEA67A3B4B83ED007A00230B80E9
:100EE800B0E740289BD1284800F0EAFD012808BF58
:100EF800354B254802BF1B6800225A62402100F08A
:100F0800DFFD00288BD1304B214F1D68DFED2F8A84
:100F18000026B0EE0C8A6C6A2046FFF79BFA324630
:100F28003B46FFF737FCFFF7A5FD07EE900AF4EE06
:100F3800E87AF1EE10FAEEDCF4EEC87AF1EE10FA87
:100F4800E9D4234B23491C60234B244A18600B889F
:100F580092ED007A01339BB277EE877A0A2BC2EDC5
:100F6800007A0B807FF45BAFB2EE047AC7EE876A33
:100F78001B4BF4EEC76AF1EE10FAC3ED006AC2BF6C
:100F8800184B01201860A9E700080048100200204B
:100F980000004D40000096430C0100204E00002048
:100FA800500100205C0000205401002000000020B7
:100FB8005402002050020020500000205801002058
:100FC800600000206C000020100100200000484351
:100FD8005C01002052000020000100206400002075
:100FE800040100205400002010B5A6B00123099385
:100FF80010230A934FF400430D934FF4E013022497
:101008000E9306A8002306940C940F9301F0D8F8C9
:1010180000B1FEE70F23019303904FF4806305901E
:10102800214601A80294049301F078FB00B1FEE781
:101038000F4B13901790229023901E9010A8109396
:1010480001F04CFC044600B1FEE701F011FC4FF43E
:101058007A73B0FBF3F000F03DFC042000F050FC84
:10106800224621464FF0FF3000F0F4FB26B010BDB9
:1010780022009001000000002DE9804897B000F0A0
:10108800B3FBFFF7B1FF954B95485A6942F400222C
:101098005A615A6902F400220492049A5A6942F485
:1010A80080025A615A6902F480020592059A5A69C7
:1010B80042F400325A615A6902F400320692069AE2
:1010C8005A6942F480225A615B6903F480230793CA
:1010D800002240F60671079B00F0F8FC00224FF44E
:1010E8008071804800F0F2FC0FAE492300240F9372
:1010F80031467D4B7A4810930125119400F010FC7D
:1011080040F60673314676480F9310951194129461
:1011180000F006FC4FF48073314672480F93109527
:101128001194129400F0FCFB22462146062000F0A0
:1011380091FB062000F0C2FB22462146092000F060
:1011480089FB092000F0BAFB22462146172000F04F
:1011580081FB172000F0B2FB6448654B84604FF4B4
:10116800164E80E808400C23C46004614361846122
:10117800C4610462446202F062FB00B1FEE75D4CA8
:101188005D4B5E4FA06020616061A061E0612062FC
:10119800204684E88800E56000F0F1FD014600B1D2
:1011A800FEE7204600F0B2FF014600B1FEE7204608
:1011B80000F0D2FF00B1FEE7514C4FF0804341F6FA
:1011C8001F4584E82800A06040F2E7332061A06151
:1011D8002046E36001F0FEFDA24600B1FEE716A935
:1011E8004FF4805341F82C3D204601F057FF00B1E1
:1011F800FEE7204601F008FE00B1FEE708900A90DD
:1012080008A9204602F02EF9024600B1FEE7602345
:10121800109011901390314620460F9302F09AF8DF
:1012280000B1FEE704223146204602F093F800B1EF
:10123800FEE73348334C00F013FA334B4FF04709BD
:1012480084E80802092200232046A360E2602361A3
:101258006361A36101F0BEFD00B1FEE72B4D2C4B8D
:10126800A8604FF6FF7B28616861A861284685E879
:101278000802C5F80CB001F0ADFD00B1FEE7254F3E
:10128800254BB860B861384687E80802C7F80CB043
:1012980001F0A0FD00B1FEE70F90119031463846ED
:1012A80002F0E0F800B1FEE7DFF874801B4BC8F8E5
:1012B8000800C8F81800404688E80802C8F80CB0CA
:1012C80001F088FD00B1FEE70F90119031464046CD
:1012D80002F0C8F8814628B3FEE700BF00100240BC
:1012E800000800480004004800003110A001002058
:1012F8000044004070000020005400400E09002007
:1013080060010020BC0000200048014010020020BD
:101318000044014054020020001400400010004026
:10132800100100204C4801F01DFC404601F01AFC59
:10133800384601F017FC284601F014FC204601F05D
:101348001EFC422301248DF83C306423029301944F
:10135800234600961122D4214048DFF80081404FEF
:1013680000F05EFD4A464FF400713E4800F0AEFBC7
:1013780022464FF480713B4800F0A8FB22464FF408
:101388008061384800F0A2FB4A464FF400613548B6
:1013980000F09CFB4946304801F042FF04212E48EA
:1013A80001F03EFF2AA5D5E90045DAF8003000260D
:1013B800C3F83490C3F8389064234FF0010A0293BD
:1013C800294B00934FF00A0B53460F22D421DFF824
:1013D800A490CDF804A0404600F0DAFDCDF808B09E
:1013E80053462322D421CDF804A0CDF800904046DE
:1013F80000F0CEFDCDF808B0DFF87CB0CDF804A041
:1014080022225346D421CDF800B0404600F0C0FD5A
:101418009BF8000099F80030A0F2EC4000EB0320A4
:10142800124B00B21880FFF725F832463B46FFF70B
:1014380087F822462B46FFF7ADF94FF07F5300227D
:10144800FFF77EF8FFF716FB094B1860B4E700BFFB
:1014580000000000C0FFDF40600100207000002095
:1014680000405F4000080048FC0000203A000020CF
:10147800080100203800002039000020254B07B55E
:101488009A6942F001029A619A6902F00102009297
:10149800009ADA6942F08052DA61DB6903F080531E
:1014A80001930720019B00F0C3F9002211466FF059
:1014B8000B0000F0CFF9002211466FF00A0000F08F
:1014C800C9F9002211466FF0090000F0C3F90022A3
:1014D80011466FF0040000F0BDF9002211466FF0CC
:1014E800030000F0B7F9002211466FF0010000F088
:1014F800B1F9002211464FF0FF3000F0ABF900229D
:101508001146012000F0A6F9012000F0D7F903B038
:101518005DF804FB00100240F0B50268154B9A42D2
:1015280087B025D104244FF4004312270126032550
:101538000DEB04014FF09040019302970396049538
:10154800059400F0EDF980230DEB04010A4801939E
:10155800029703960495059400F0E2F9074BDA69BF
:1015680042F40012DA61DB6903F400130093009B74
:1015780007B0F0BD005400400004004800100240CD
:101588007FB50368B3F1804F0DD103F50433DA69F1
:1015980042F00102DA61DB6903F001030193019B68
:1015A80007B05DF804FB294A934212D1284BDA6947
:1015B80042F01002DA61DB69002203F010030293A3
:1015C80036201146029B00F045F9362000F076F9E6
:1015D800E6E7204A934210D11D4BDA6942F0200217
:1015E800DA61DB69002203F02003039337201146F8
:1015F800039B00F02FF93720E8E7174A934210D1F0
:10160800134B9A6942F400329A619B69002203F4F1
:101618000033049319201146049B00F01BF919208C
:10162800D4E70E4A9342BBD1094B9A6942F480220F
:101638009A619B69002203F4802305931A201146BE
:10164800059B00F007F91A20C0E700BF0010004012
:1016580000100240001400400044014000480140CE
:101668007FB50368B3F1804F0DD1032301930223A3
:10167800029300230393049301A901234FF09040A0
:10168800059300F04DF907B05DF804FB7FB50268DB
:101698000F4B9A4218D103F5E63301A9DA6942F4EF
:1016A8000032DA61DB6903F400330093009B0C23FA
:1016B8000193022302930023039304934FF0904075
:1016C8000723059300F02CF907B05DF804FB00BF71
:1016D800004400407047FEE7FEE7FEE7FEE770477C
:1016E8007047704708B500F091F8BDE8084000F071
:1016F80013B900F057BD012000F0EEB9082000F042
:10170800EBB9402000F0E8B9014801F048BA00BF41
:1017180010020020014801F042BA00BFBC000020BE
:10172800014801F03CBA00BF10010020014801F057
:1017380036BA00BF540200201549D1F8883043F466
:101748007003C1F88830134B1A6842F001021A601E
:101758005868114A02405A601A6822F0847222F4CA
:1017680080321A601A6822F480221A605A6822F4B9
:10177800FE025A60DA6A22F00F02DA62186B074A30
:1017880002401A6300229A604FF000638B60704732
:1017980000ED00E0001002400CC07FF8CCFC00FF18
:1017A80038B50E4A0E4B054618784FF47A73B3FBDA
:1017B800F0F31068B0FBF3F000F08CF8044658B969
:1017C8000F2D09D8024629464FF0FF3000F042F8A5
:1017D800044B20461D6038BD012038BD1000002094
:1017E8001400002018000020074A08B5136843F0C9
:1017F80010031360032000F01BF80020FFF7D0FF50
:10180800FFF73CFE002008BD00200240034A044BBD
:1018180011681B780B441360704700BF94020020C6
:1018280014000020014B1868704700BF9402002084
:10183800074AD36823F4E0631B041B0C43F0BF631F
:10184800000243F4003300F4E0600343D3607047C0
:1018580000ED00E0174B30B5DC68C4F30224C4F196
:101868000703251D042B28BF0423062D4FF001056F
:1018780005FA03F303F1FF338CBF033C002419403E
:10188800A14005FA04F4013C2240002842EA010282
:101898004FEA0212AFBF00F1604000F00F00064BA4
:1018A800D2B2A5BF00F56140D2B21A5480F8002325
:1018B80030BD00BF00ED00E014ED00E04209012357
:1018C80000F01F0003FA00F0014B43F822007047B4
:1018D80000E100E00138B0F1807F0AD2064B074AE8
:1018E8005860F02182F823100020072298601A60BF
:1018F80070470120704700BF10E000E000ED00E0F5
:10190800044B1A6804280CBF42F0040222F00402B7
:101918001A60704710E000E008B5FFF725F908BD28
:101928002DE9F74FD1F80080DFF89091614A002344
:1019380038FA03F402D103B0BDE8F08F4FF0010E7E
:101948000EFA03FE18EA0E0600F0A6804C6824F092
:101958001007022F16D14FEAD30A00EB8A0A03F0C8
:10196800070BDAF820504FEA8B0B4FF00F0C0CFAEC
:101978000BFC25EA0C0C0D6905FA0BF545EA0C057C
:10198800CAF820504FEA430A0325D0F800B005FAF8
:101998000AF5ED4304F0030C0BEA050B0CFA0AFCFC
:1019A800013F4CEA0B0C012FC0F800C011D8876822
:1019B80007EA050BCF6807FA0AFC4CEA0B078760B1
:1019C800476827EA0E0EC4F300179F4047EA0E0740
:1019D8004760C7683D408F6807FA0AF73D43C5600E
:1019E800E50059D5D9F8185045F00105C9F818503F
:1019F800D9F8185023F0030707F1804705F00105CF
:101A080007F58037019503F0030C019DBD684FEA87
:101A18008C0C4FF00F0E0EFA0CFEB0F1904F25EA29
:101A28000E0E3BD0244DA8423AD005F58065A84259
:101A380038D005F58065A84236D005F58065A842FE
:101A480034D005F58065A84232D005F58065A842F6
:101A580014BF0725062505FA0CF545EA0E05BD60F5
:101A68001568F74314F4803F0CBF3D4035431560BB
:101A7800556814F4003F0CBF3D40354355609568E8
:101A880014F4801F0CBF3D4035439560D568A4020F
:101A980054BF3D403543D560013349E70025DAE7B7
:101AA8000125D8E70225D6E70325D4E70425D2E7A0
:101AB8000525D0E70004014000040048001002405A
:101AC8000369194214BF0120002070470AB18161DF
:101AD800704781627047000008B5044B596901429C
:101AE80002D05861FFF756F908BD00BF0004014055
:101AF80003689A69910744BF00229A629A69D207DB
:101B08005EBF9A6942F001029A61704730B5039C42
:101B180005682343640D04F4806444F07F7444F43E
:101B280058346868C1F3090144F47F74194344F0D8
:101B3800030441EA024120EA04042143696030BDFC
:101B48002DE9F041069F0446884616461D46226840
:101B5800936938EA03030CBF01230023B34202D080
:101B68000020BDE8F0816B1CF2D055B9202384F821
:101B78004130002384F8423084F840300320BDE827
:101B8800F081FFF74FFEC01B8542E0D2EEE7036805
:101B980070B50446986910F010000D46164612D12B
:101BA80070BD691C10D04DB9202384F84130002342
:101BB80084F8423084F84030032070BDFFF732FECD
:101BC800801B8542F0D3236899698A06E9D51022DB
:101BD8002025DA612046DD61FFF78AFF2268536815
:101BE80023F0FF7323F48B3323F4FF7323F00103F3
:101BF800536004236364002384F8415084F8403020
:101C080084F84230012070BD70B504460D46164672
:101C180023689B699B0701D5002070BD3246294681
:101C28002046FFF7B4FFB0B96A1CF1D06DB9636CF8
:101C380043F020036364202384F84130002384F8B0
:101C4800423084F84030032070BDFFF7EBFD801B65
:101C58008542DDD2EBE7012070BD0000F7B5099E93
:101C68001F46184B0093044615464FF08073FAB28E
:101C7800FFF74CFF324608992046FFF7C5FF28B109
:101C8800636C042B10D1012003B0F0BD012F236831
:101C98000CD1EDB29D62089B00960022802120465F
:101CA800FFF74EFF0028EFD00320EDE72A0A9A62DB
:101CB800089932462046FFF7A7FF0028E0D123689D
:101CC800E7E700BF00200080F7B5099E1F46174BC5
:101CD8000093044615460023FAB2FFF717FF324671
:101CE80008992046FFF790FF28B1636C042B10D1A8
:101CF800012003B0F0BD012F23680CD1EDB29D6225
:101D0800089B0096002240212046FFF719FF002873
:101D1800EFD00320EDE72A0A9A6208993246204656
:101D2800FFF772FF0028E0D12368E7E70020008072
:101D380070B504460D46164623689B699B0601D577
:101D4800002070BD324629462046FFF720FFA0B983
:101D58006DB9636C43F020036364202384F8413039
:101D6800002384F8423084F84030032070BDFFF728
:101D780059FD801B8542DFD2EBE7012070BD10B50D
:101D8800044600284AD090F8413003F0FF021BB9FE
:101D980080F84020FFF7C0FB242384F841302368F3
:101DA800E1681A6822F001021A60626822F0706223
:101DB8001A619A68012922F400429A60A26824D123
:101DC80042F400429A605A68616942F0007242F433
:101DD80000425A60DA6822F40042DA6022690A4353
:101DE800A16942EA0122DA60216AE2690A431A60BB
:101DF8001A6842F001021A6000202023606484F807
:101E08004130206384F8420010BD42F404420229A4
:101E18009A6004BF4FF400625A60D4E7012010BDF5
:101E28002DE9F04F9B4690F8413085B0202B0446B1
:101E38000F460392BDF83CA0DDF8409040F0A68024
:101E48000E9B1BB9012005B0BDE8F08FBAF1000F59
:101E5800F8D090F84030012B00F09880012580F8E8
:101E68004050FFF7DFFC1923009006462A464FF43E
:101E780000412046FFF764FE8046D0B9212384F84C
:101E88004130402384F842300E9B60646362606393
:101E9800A4F82AA00196CDF800905B46039A39462B
:101EA8002046FFF7DBFE30B1636C84F84080042BDA
:101EB800C8D00320C7E7638D9BB2FF2B10D9FF2240
:101EC800228500904FF0807339462046FFF71EFEAA
:101ED800324649462046FFF797FE48B1636CE6E76D
:101EE800628D009092B222854FF00073D2B2EBE778
:101EF800636A2268591C61621B789362638D228D24
:101F0800013B013A9BB292B263852285BAB9638DCF
:101F18009BB2A3B100964B4680212046FFF710FEE6
:101F28000028C6D1638D9BB2FF2B27D9FF222285BB
:101F380000904FF0807339462046FFF7E7FD638D28
:101F48009BB2002BC4D1324649462046FFF7F0FE2B
:101F58000028C3D123682021D9615A6822F0FF7272
:101F680022F48B3222F4FF7222F001025A6084F8C4
:101F7800411084F8400084F8420064E7628D0090C4
:101F880092B222854FF00073D2B2D4E702205AE70A
:101F98002DE9F04F9B4690F8413085B0202B044640
:101FA8000F460392BDF83CA0DDF8409040F0A980B0
:101FB8000E9B1BB9012005B0BDE8F08FBAF1000FE8
:101FC800F8D090F84030012B00F09B80012580F874
:101FD8004050FFF727FC1923009006462A464FF485
:101FE80000412046FFF7ACFD8046D0B9222384F893
:101FF8004130402384F842300E9B60646362606322
:10200800A4F82AA00196CDF800905B46039A3946B9
:102018002046FFF759FE30B1636C84F84080042BEA
:10202800C8D00320C7E7638D9BB2FF2B364B44D93A
:10203800FF22009322854FF0807339462046FFF730
:1020480065FD00964B46002204212046FFF778FDE7
:102058000028E6D1636A5A1C62622268526A1A70C2
:10206800228D638D013A013B92B29BB22285638532
:10207800BAB9638D9BB2A3B100964B468021204626
:10208800FFF75EFD0028CCD1638D9BB2FF2B1CD9D6
:10209800FF22228500904FF0807339462046FFF7D3
:1020A80035FD638D9BB2002BCBD132464946204685
:1020B800FFF73EFE88B1636CB1E7628D009392B280
:1020C80022854FF00073D2B2B7E7628D009092B2CA
:1020D80022854FF00073D2B2DFE723682021D9614F
:1020E8005A6822F0FF7222F48B3222F4FF7222F037
:1020F80001025A6084F8411084F8400084F84200D4
:1021080059E7022057E700BF0024008090F84120DB
:10211800D2B2202A10B51DD190F84030012B19D029
:10212800242380F8413003681C6824F001041C60F3
:102138001C6824F480541C601C68214319601968C9
:1021480041F001011960002380F8412080F84030F7
:10215800184610BD022010BD10B590F84140E4B2F9
:10216800202C1CD190F84030012B18D0242380F863
:10217800413003681A6822F001021A601A6822F4D2
:10218800706242EA012119601A6842F001021A607D
:10219800002380F8414080F84030184610BD0220E6
:1021A80010BD704710B5054C6369DB0304D5FFF714
:1021B800F8FF4FF48033636110BD00BF0004014095
:1021C8002DE9F347054618B9012002B0BDE8F087AC
:1021D8000368DF0711D42B689E0700F188802B68FD
:1021E8001C0700F1FC802B68580700F14581AA699B
:1021F800002A40F0DC810020E7E7BD4C636803F06B
:102208000C03042B0AD0636803F00C03082B19D1C4
:10221800636803F4C033B3F5803F13D14FF4003340
:1022280093FAA3F2216893FAA3F3B3FA83F303F0C2
:102238001F03012202FA03F30B42CCD06B68002B78
:10224800C9D1C1E76B68B3F5803F1ED1236843F459
:1022580080332360FFF7E6FA4FF400368046012703
:1022680096FAA6F3226896FAA6F3B3FA83F303F074
:102278001F0307FA03F31342ADD1FFF7D3FAA0EB1C
:1022880008006428ECD903209FE70BBB236823F4DC
:1022980080332360236823F480232360FFF7C2FA86
:1022A8004FF400368046012796FAA6F3226896FA7C
:1022B800A6F3B3FA83F303F01F0307FA03F31342F9
:1022C80089D0FFF7AFFAA0EB08006428ECD9DAE769
:1022D800B3F5A02F236803D143F480232360B5E727
:1022E80023F480332360236823F48023B1E7804CF0
:1022F800636813F00C0F0AD0636803F00C03082B13
:1023080025D1636803F4C033B3F5004F1FD102230E
:1023180093FAA3F2216893FAA3F3B3FA83F303F0D1
:102328001F03012202FA03F30B4203D0EB68934226
:102338007FF44AAF2168F82393FAA3F3B3FA83F240
:102348002B69934021F0F8021343236047E7EA68BA
:1023580001260AB396FAA6F3B3FA83F303F184537A
:1023680003F584139B0002271E60FFF75BFA804683
:1023780097FAA7F3226897FAA7F3B3FA83F303F05F
:102388001F0306FA03F31342D4D1FFF74BFAA0EB6D
:1023980008000228ECD976E796FAA6F3B3FA83F395
:1023A80003F1845303F584139B0002271A60FFF797
:1023B80039FA804697FAA7F3226897FAA7F3B3FA8F
:1023C80083F303F01F0306FA03F313423FF407AF46
:1023D800FFF728FAA0EB08000228EBD953E76A694F
:1023E800434E444901241AB394FAA4F3B3FA83F38D
:1023F8000B449B0002271C60FFF714FA804697FAEB
:10240800A7F397FAA7F397FAA7F3726A97FAA7F3CD
:10241800B3FA83F303F01F0304FA03F313427FF4C0
:10242800E2AEFFF7FFF9A0EB08000228E7D92AE798
:1024380094FAA4F3B3FA83F30B449B0002271A60BF
:10244800FFF7F0F9804697FAA7F397FAA7F397FAF8
:10245800A7F3726A97FAA7F3B3FA83F303F01F039B
:1024680004FA03F313423FF4BEAEFFF7DBF9A0EB27
:1024780008000228E7D906E71D4CE369D90034D4DF
:10248800E36943F08053E361E36903F08053019308
:10249800019B0126184F3B68DA052FD5AB68012B45
:1024A8003DD1236A43F001032362FFF7BBF90227FA
:1024B8008246B9464FF0010897FAA7F397FAA7F3AF
:1024C800002B6CD0226A99FAA9F3B3FA83F303F0CC
:1024D8001F0308FA03F3134258D0002E3FF487AEC7
:1024E800E36923F08053E36181E60026D2E700BF69
:1024F8000010024020819010007000403B6843F4B7
:1025080080733B60FFF78EF980463B68DB05C5D4D6
:10251800FFF788F9A0EB08006428F6D9B3E63BBBBF
:10252800236A23F001032362236A23F0040323624E
:10253800FFF778F902278246B9464FF0010897FA63
:10254800A7F397FAA7F373B3226A99FAA9F3B3FA30
:1025580083F303F01F0308FA03F31342BDD0FFF718
:1025680061F941F28833A0EB0A009842E7D98AE67C
:10257800052B236A03D143F00403236291E723F078
:1025880001032362236A23F004038DE7FFF74AF966
:1025980041F28833A0EB0A0098428DD973E697FA86
:1025A800A7F3626A8FE797FAA7F3626ACDE7444C0C
:1025B800636803F00C03082B3FF406AE022A4FF0C1
:1025C800807358D193FAA3F3B3FA83F303F18453D6
:1025D80003F584139B0000221A60FFF723F94FF0DC
:1025E80000778046012697FAA7F3226897FAA7F39F
:1025F800B3FA83F303F01F0306FA03F3134233D14C
:10260800E36A6A6A23F00F031343E36262682B6A82
:10261800E96922F476120B43134363604FF0807329
:1026280093FAA3F3B3FA83F303F1845303F5841302
:102638009B004FF000751E60FFF7F4F8012607466F
:1026480095FAA5F3226895FAA5F3B3FA83F303F094
:102658001F0306FA03F313427FF4CDADFFF7E2F848
:10266800C01B0228ECD90EE6FFF7DCF8A0EB080047
:102678000228B8D907E693FAA3F3B3FA83F303F170
:10268800845303F584139B0000221A60FFF7CAF8ED
:102698004FF000750746012695FAA5F3226895FACA
:1026A800A5F3B3FA83F303F01F0306FA03F3134207
:1026B8003FF4A1ADFFF7B6F8C01B0228ECD9E2E55C
:1026C8000010024011494B6803F00C02082A1AD185
:1026D8004FF4701292FAA2F20F20B2FA82F2C96A8B
:1026E80090FAA0F0B0FA80F001F00F0103F4701333
:1026F800D340C140064A0748415C0748B0FBF1F1A6
:10270800D05C484370470448704700BF001002403F
:10271800243900083439000800127A002DE9F04104
:102728000D46044610B90120BDE8F0814C4A1368F3
:1027380003F007038B422ED32268910736D4D207C1
:102748003CD4474A136803F007039D4275D32268B7
:10275800444D12F0040F7CD1130706D56B6822692B
:1027680023F4605343EAC2036B60FFF7ABFF6B6867
:10277800F02292FAA2F2B2FA82F203F0F003D34006
:10278800394AD35CD840394B18600020FFF708F865
:102798000020BDE8F081136823F007030B431360A2
:1027A800136803F007039942BDD1C5E72D49A06816
:1027B8004B6823F0F00303434B60C0E76268294E7F
:1027C800012A27D14FF4003393FAA3F1316893FA21
:1027D800A3F3B3FA83F303F01F0302FA03F30B42E4
:1027E800A1D0736823F003031A437260FFF71AF845
:1027F80041F2883807467368626803F00C03B3EB4C
:10280800820F9ED0FFF70EF8C01B4045F3D9032076
:10281800BDE8F081022A0CBF4FF00073022393FA3F
:10282800A3F1306893FAA3F3B3FA83F303F01F0319
:10283800012101FA03F30342D2E7136823F00703E7
:102848002B431360136803F007039D427FF46BAFBB
:102858007DE76B68E16823F4E0630B436B607BE71B
:1028680000200240001002400C390008100000202F
:10287800014B1868704700BF10000020084B4FF448
:10288800E0625B6892FAA2F2B2FA82F203F4E063C1
:10289800D340044AD35C044A1068D840704700BF4C
:1028A800001002401C39000810000020084B4FF4AB
:1028B80060525B6892FAA2F2B2FA82F203F46053B1
:1028C800D340044AD35C044A1068D840704700BF1C
:1028D800001002401C3900081000002003682DE990
:1028E800F347DF03044623D59B4DEB69DE0000F177
:1028F800D780EB6943F08053EB61EB6903F08053B9
:102908000193019B0126954F3B68D80540F1CA8089
:102918002B6A13F4407340F0DA802B6A626823F460
:10292800407313432B621EB1EB6923F08053EB61B4
:102938002068C30706D5884AA168136B23F00303F0
:102948000B431363870706D5834AE168136B23F4A7
:1029580040330B431363460706D57F4A2169136B3F
:1029680023F440230B431363850606D57A4AE169AD
:10297800136B23F010030B431363810306D5764AC8
:10298800616D536823F480030B435360420606D5F8
:10299800714A216A136B23F020030B43136343032B
:1029A80006D56D4A616A136B23F040030B4313632A
:1029B800070706D5684A6169136B23F440130B4374
:1029C8001363C60606D5644AA169136B23F4400352
:1029D8000B431363850506D55F4A216B536823F4BF
:1029E80000030B435360010606D55B4AA16AD36A0C
:1029F80023F4F8730B43D362C20506D5564AE16A3D
:102A0800D36A23F478530B43D362C30406D5524ADE
:102A1800616B136B23F480730B431363870406D530
:102A28004D4A216C136B23F400730B431363C602E6
:102A380006D5494AA16B136B23F080730B431363CC
:102A4800850206D5444AE16B136B23F000730B43F0
:102A58001363410206D5404A616C136B23F480630B
:102A68000B431363020206D53B4AA16C136B23F494
:102A780000630B431363C30106D5374AE16C136B3C
:102A880023F400530B43136310F000701CD0324A38
:102A9800216D136B23F400430B431363002013E0F1
:102AA800002630E73B6843F480733B60FEF7BAFECC
:102AB80080463B68D9053FF52BAFFEF7B3FEA0EB88
:102AC80008006428F5D9032002B0BDE8F0876268E1
:102AD80002F4407293423FF420AF296A4FF48033E6
:102AE80021F4407093FAA3F2DFF874E0B2FA82F2AC
:102AF800724492000127176093FAA3F3B3FA83F3A1
:102B080073449B0000221A60CA0728627FF505AF4C
:102B1800FEF788FE4FF002088246C14698FAA8F3ED
:102B280098FAA8F3A3B12A6A99FAA9F3B3FA83F336
:102B380003F01F0307FA03F313427FF4EEAEFEF728
:102B480071FE41F28833A0EB0A009842E6D9BAE751
:102B580098FAA8F36A6AE7E700100240007000409C
:102B6800008190100268022380F83D30136843F01A
:102B780001031360012380F83D300020704703688B
:102B8800DA6842F00102DA601A6842F001021A605B
:102B98000020704770477047704770477047036858
:102BA8001A69910710B504460FD5DA6892070CD553
:102BB8006FF002021A619B6901229907027700F0FF
:102BC8008580FFF7E9FF0023237723681A695207F6
:102BD80010D5DA6850070DD56FF004021A619B69A9
:102BE800022213F4407F2277204675D0FFF7D4FFE6
:102BF8000023237723681A6911070FD5DA681207AB
:102C08000CD56FF008021A61DB6904229B07227752
:102C1800204667D0FFF7C0FF0023237723681A698F
:102C2800D00610D5DA68D1060DD56FF010021A61FA
:102C3800DB69082213F4407F2277204658D0FFF73B
:102C4800ABFF0023237723681A69D20708D5DA680F
:102C5800D00705D56FF001021A612046FEF760F82B
:102C680023681A69110608D5DA68120605D56FF0C7
:102C780080021A61204600F020FC23681A69D005FA
:102C880008D5DA68110605D56FF480721A612046F6
:102C980000F014FC23681A69520608D5DA68500651
:102CA80005D56FF040021A612046FFF777FF2368C9
:102CB8001A69910622D5DA6892061FD56FF02002AC
:102CC80020461A61BDE8104000F0F6BBFFF763FF2D
:102CD8002046FFF762FF76E7FFF75DFF2046FFF724
:102CE8005CFF85E7FFF757FF2046FFF756FF93E79E
:102CF800FFF751FF2046FFF750FFA2E710BD000085
:102D0800324A0368904212D0B0F1804F0FD0A2F53A
:102D1800943290420BD002F58062904207D002F5BF
:102D28009632904203D002F5E052904215D14A689B
:102D380023F070031343254A90421DD0B0F1804F11
:102D48001AD0A2F59432904216D002F580629042D1
:102D580012D002F5963290420ED01D4A90420BD006
:102D680002F58062904207D002F58062904203D05B
:102D780002F50062904203D1CA6823F440731343FA
:102D88004A6923F08003134303608B68C3620B68AE
:102D980083620E4B984213D003F5006398420FD01C
:102DA80003F5406398420BD003F58063984207D03F
:102DB80003F58063984203D003F50063984201D17C
:102DC8000B69036301234361704700BF002C014076
:102DD8000040014010B50446A0B190F83D3003F022
:102DE800FF021BB980F83C20FEF7CAFB022384F8D7
:102DF8003D302068211DFFF783FF012384F83D3013
:102E0800002010BD012010BD10B50446A0B190F8F7
:102E18003D3003F0FF021BB980F83C20FFF7BAFEF3
:102E2800022384F83D302068211DFFF769FF012344
:102E380084F83D30002010BD012010BD036A23F046
:102E480001030362036A70B5446882690D6822F45D
:102E5800803222F073022A438D6823F002032B4349
:102E68001F4DA84213D005F50065A8420FD005F5FF
:102E78004065A8420BD005F58065A84207D005F546
:102E88008065A84203D005F50065A84222D1CD6827
:102E980023F008032B43124DA84223F0040313D058
:102EA80005F50065A8420FD005F54065A8420BD08E
:102EB80005F58065A84207D005F58065A84203D0CE
:102EC80005F50065A84205D124F440758E694C6962
:102ED80034432C43446082614A684263036270BD94
:102EE800002C0140036A23F010030362036A70B5E3
:102EF800446882690D6822F0807222F4E64242EA50
:102F080005228D6823F0200343EA05131A4DA842D1
:102F180007D005F50065A84203D005F5E055A8429D
:102F28000DD1CD6823F0800343EA0513124DA84262
:102F380023F0400312D005F50065A8420ED00F4DCE
:102F4800A8420BD005F58065A84207D005F5806535
:102F5800A84203D005F50065A84206D124F44065CF
:102F68008E694C69344345EA8404446082614A6846
:102F78008263036270BD00BF002C01400040014025
:102F8800036A23F480730362036A70B54468C269F4
:102F98000D6822F4803222F073022A438D6823F4EC
:102FA800007343EA05231A4DA84207D005F50065CA
:102FB800A84203D005F5E055A8420DD1CD6823F409
:102FC800006343EA0523124DA84223F4806312D01C
:102FD80005F50065A8420ED00E4DA8420BD005F5A8
:102FE8008065A84207D005F58065A84203D005F59D
:102FF8000065A84206D124F440558E694C693443D3
:1030080045EA04144460C2614A68C263036270BD41
:10301800002C014000400140036A23F480530362FE
:10302800036A30B54468C2690D6822F0807222F4E0
:10303800E64242EA05228D6823F4005343EA053349
:10304800104DA84213D005F50065A8420FD005F52C
:103058004065A8420BD005F58065A84207D005F564
:103068008065A84203D005F50065A84204D14D69E2
:1030780024F4804444EA85144460C2614A680264C6
:10308800036230BD002C014010B584680A4324F463
:103098007F4442EA03232343836010BD90F83C3009
:1030A800012B70B504464FF002001AD084F83D0099
:1030B8002068012384F83C308268524B13408360B7
:1030C8000B68402B75D018D8102B00F08F8009D8CA
:1030D800002B00F085800123002084F83D3084F81F
:1030E8003C0070BD202B00F08780302BF3D1836823
:1030F80023F0700343F0370333E0702B33D01BD831
:10310800502B3FD0602BE6D14D68CE68016A21F084
:10311800100101628269036A22F4704223F0A0035D
:1031280043EA051342EA063282610362836823F0A8
:10313800700343F0670314E0B3F5805F0CD0B3F578
:10314800005FC8D1CB684A688968FFF79DFF22688D
:10315800936843F4804313E0836823F4803323F0B7
:1031680007038360B7E7CB684A688968FFF78CFF75
:103178002268936823F4803323F0770343F07703BE
:103188009360A8E74A68CE68016A056A25F00105D8
:103198000562836921F00A0123F0F00343EA06136C
:1031A8000A4383610262836823F0700343F0570384
:1031B800D7E74A68CE68016A056A25F00105056205
:1031C800836921F00A0123F0F00343EA06130A4356
:1031D80083610262836823F0700343F04703C0E70A
:1031E800836823F0700343F00703BAE7836823F08A
:1031F800700343F01703B4E7836823F0700343F0C8
:103208002703AEE78800FEFF036A10B501248C404F
:1032180023EA04030362036A8A401A43026210BD68
:1032280010B5044601220068FFF7EEFF2368104A34
:10323800934213D002F5006293420FD002F5406228
:1032480093420BD002F58062934207D002F5806268
:10325800934203D002F50062934203D15A6C42F4C0
:1032680000425A641A6842F001021A60002010BD38
:10327800002C0140036A23F480330362036A30B5EB
:103288004468426D0D6822F4803222F070022A43AD
:103298008D6823F4003343EA0543114DA84213D047
:1032A80005F50065A8420FD005F54065A8420BD08A
:1032B80005F58065A84207D005F58065A84203D0CA
:1032C80005F50065A84204D14D6924F4803444EA28
:1032D8000524446042654A688265036230BD00BFC8
:1032E800002C0140036A23F480130362036A30B59B
:1032F8004468426D0D6822F0807222F4E04242EA8E
:1033080005228D6823F4001343EA0553104DA842A3
:1033180013D005F50065A8420FD005F54065A84211
:103328000BD005F58065A84207D005F58065A84251
:1033380003D005F50065A84204D14D6924F4802422
:1033480044EA8524446042654A68C265036230BD28
:10335800002C014038B590F83C30012B04460D464E
:103368004FF0020010D00123082A84F83C3084F87A
:103378003D0043D009D8FAB1042A2ED001230020F9
:1033880084F83D3084F83C0038BD102A47D0142A10
:1033980056D00C2AF2D12068FFF73EFE236829692F
:1033A800DA6942F40062DA61DA6922F48062DA6189
:1033B800DA6942EA012230E02068FFF73FFD23681E
:1033C80029699A6942F008029A619A6922F004020E
:1033D8009A619A690A439A61D0E72068FFF782FDEB
:1033E800236829699A6942F400629A619A6922F409
:1033F80080629A619A6942EA0122ECE72068FFF745
:10340800BFFD23682969DA6942F00802DA61DA69DE
:1034180022F00402DA61DA690A43DA61AEE7206869
:10342800FFF728FF236809695A6D42F008025A65B8
:103438005A6D22F004025A655A6D0A435A659DE78F
:103448002068FFF74FFF236809695A6D42F400624C
:103458005A655A6D22F480625A655A6D42EA012211
:10346800ECE7000090F83C30012B30B520D0026822
:10347800104D53689468AA4207D005F50065AA4222
:1034880003D005F5E055AA4203D14D6823F4700333
:103498002B430D68896823F070032B4324F08004C4
:1034A800536021430023916080F83C30184630BDBA
:1034B800022030BD002C0140704770477047000063
:1034C80038B5044605682169A268C36928680A43B3
:1034D80061690A4377491A4301400A432A606A68C6
:1034E800E168206A22F440520A436A60A968A26926
:1034F80021F4306102430A43AA606F4A954212D10F
:1035080002F558426D49126B02F00302B3F5004F01
:103518008A5C66D0082A19D8DFE802F0C2929E18A1
:10352800A9181818AC00664A954224D102F5E6326B
:10353800126B02F44032B2F5803F00F0A08007D849
:10354800002A00F0AA80B3F5004F76D0012038BDDC
:10355800B2F5003F00F09980B2F5403FF3D1B3F5E2
:10356800004F79D16068430803F5740303F51053DD
:10357800B3FBF0F354E0534A95420ED102F5E4321E
:10358800126B02F44022B2F5802F78D0D8D9B2F568
:10359800002F7AD0B2F5402FE0E74B4A95420ED182
:1035A80002F5E232126B02F44012B2F5801F66D0C7
:1035B800C6D9B2F5001F68D0B2F5401FCEE7434A1E
:1035C8009542C0D102F5E032126B02F44002B2F526
:1035D800800F54D0B4D9B2F5000F56D0B2F5400FD1
:1035E800BCE7082A29D801A353F822F019360008A5
:1035F8003D3600086D350008433600088D36000852
:103608004336000843360008433600089936000858
:10361800FFF734F961684A0802EB4003B3FBF1F3A2
:103628009BB2002023F00F022168C3F34203134327
:10363800CB6038BDFFF73AF9ECE701200023F1E74A
:10364800FFF734F9636800EB5300B0FBF3F01A4B53
:1036580080B2D860002038BD6268530803F5F403CF
:1036680003F59053B3FBF2F39BB2EB60F2E7FFF77D
:1036780029F817E06268530803F50043F2E7B3F549
:10368800004FF4D1FFF71EF8C4E7B3F5004FF1D1AE
:103698006068430803F580336AE7B3F5004FB7D095
:1036A800FFF7ECF8636800EB5300B0FBF3F080B26F
:1036B800E860CFE7F369FFEF0038014044390008BC
:1036C8000044004000480040004C004000500040CA
:1036D800436ADA0710B506D50168846A4A6822F495
:1036E800003222434A609C0706D50168C46A4A68CA
:1036F80022F4803222434A60590706D50168046BD8
:103708004A6822F4802222434A601A0706D50168D3
:10371800446B4A6822F4004222434A60DC0606D51C
:103728000168846B8A6822F4805222438A60990671
:1037380006D50168C46B8A6822F4005222438A6065
:103748005A060FD50168046C4A6822F48012224395
:10375800B4F5801F4A6005D14A68446C22F4C0025F
:1037680022434A601B0606D50268816C536823F41D
:1037780000230B43536010BD2DE9F041069D04461C
:103788000F46164698462168CA6937EA02030CBFF5
:1037980001220022B24202D00020BDE8F0816B1C59
:1037A800F2D09DB923681A6822F4D0721A609A6818
:1037B80022F001029A60202384F8693084F86A3084
:1037C800002384F868300320BDE8F081FEF72AF86A
:1037D800A0EB08008542D6D2E4E773B5044600267C
:1037E800C666FEF71FF823681B681A07054617D434
:1037F80023681B685B070AD56FF07E43009300229D
:103808002B464FF480012046FFF7B6FFA0B92023CE
:10381800002084F8693084F8680084F86A300CE085
:103828006FF07E430093324603464FF40011204662
:10383800FFF7A2FF0028DBD0032002B070BD10B54F
:10384800044660B390F8693003F0FF021BB980F8B2
:103858006820FDF71BFF2268242384F86930136869
:1038680023F0010313602046FFF72AFE012816D033
:10387800636A13B12046FFF72BFF23685A6822F4C6
:1038880090425A609A6822F02A029A601A6842F0B6
:10389800010220461A60BDE81040FFF79EBF0120D4
:1038A80010BD000070B50D4E0D4CA41BA4100025D2
:1038B800A54209D10B4E0C4C00F018F8A41BA4101B
:1038C8000025A54205D170BD56F825309847013529
:1038D800EEE756F8253098470135F2E748390008F1
:1038E80048390008483900084C390008F8B500BFC5
:1038F800F8BC08BC9E467047F8B500BFF8BC08BCC9
:043908009E46704720
:10390C000000000000000000010203040607080983
:10391C000000000001020304020304050607080965
:10392C000A0B0C0D0E0F10100102030405060708FC
:0C393C00090A0B0C0D0E0F10010408020C
:04394800BD010008B5
:04394C0099010008D5
:10395000010000009A9999BE0000803F00002041BC
:0C39600000127A000100000010000000BE
:0400000508000B1DC7
:00000001FF
